:020000040800F2
:20000000DFF820D072B608480021016000200749044A00F002F80648004741F8040B9142C7
:20002000FBD3704700800204000088A00070020435600004DFF80CD000F036FA004800471C
:200040002DB80004008002040CB542691144491CCDE90012914204D94169009A9142FBD3AE
:200060000CBD41699142FCD24169009A9142FBD30CBD70B52A4C0546207830B90C22002108
:20008000A06800F03EF8012020702946A068FFF7DBFF012070BD70B5214C0546607830B94E
:2000A00000221021606800F02CF801206070E8034FF47A71B0FBF1F16068FFF7C5FF0120D7
:2000C00070BD70B5164C0D46012618B101280BD0002070BD607828B900221021606800F014
:2000E00010F86670606808E0207828B90C220021A06800F006F82670A068406928600120C4
:2001000070BD084B10B5D3F80843640702D50424C3F82843114341603121016010BD00007F
:2001200024E60004000001A22C4A116810B1012802D0FEE7506800E0106CC00701D041F0A1
:20014000100141F008001060704724480168244A1140016001688907FCD4016821F00801ED
:20016000016001680907FCD470471C49034600200A68012B42F00C0201D142F080520A6032
:200180000A689207FCD50A68D207FCD1704710B50446FFF7EAFF2046BDE81040D5E730B5CA
:2001A000002305461C4606E020460C46090A5B1C60F31F24DBB20029F6D1002B0CD02846BF
:2001C000FFF7B2FF0748046004480361002141612846BDE83040DAE730BD0000000004A07D
:2001E000EBFFFFEF000804A008B50020009069460120FFF766FF08B1009808BDFEE70000E8
:2002000010B500F091F847494A6822F01E024A604A6842F013024A604A6822F01E024A6051
:200220004A6842F003024A60BFF36F8F00F086F8002010BD10B50446C00602D06FF0060014
:2002400010BD00F071F80146364824F01F024260426842F005024260BFF36F8F084600F069
:200260006DF8002010BD70B5044645180843C00602D06FF0060070BD00F056F8064603E07E
:200280002046FFF7D7FF2034AC42F9D3BFF36F8F304600F053F8002070BD10B50446C0069B
:2002A00002D06FF0060010BD00F03EF801461D4824F01F024260426842F015024260BFF34A
:2002C0006F8F084600F03AF8002010BD70B5044645180843C00602D06FF0060070BD00F092
:2002E00023F8064603E02046FFF7D7FF2034AC42F9D3BFF36F8F304600F020F8002070BDF9
:2003000010B500F011F807494A6822F01E024A604A6842F013024A60BFF36F8F00F00EF8F8
:20032000002010BD000088A0EFF31180042181F31188BFF35F8FBFF36F8F7047C0B280F317
:200340001188BFF35F8FBFF36F8F704740EA01039B0703D009E008C9121F08C0042AFAD2AD
:2003600003E011F8013B00F8013B521EF9D27047D2B201E000F8012B491EFBD27047002299
:20038000F6E710B513460A4604461946FFF7F0FF204610BD3EB5CA17CB0F0024504051405E
:2003A000C0186141DA0740F233430094CDE901232246234600F029F803B030BD30B5041E43
:2003C00071F1000404DB4FF00044404264EB0101141E73F1000405DB1C464FF00043524290
:2003E00063EB0403994208BF904230BD10B5141E73F1000408DA401C41F1000192185B4131
:200400001A4301D120F0010010BD2DE9F04D92469B4611B1B1FA81F202E0B0FA80F2203293
:20042000904600F053F804460F4640EA0A0041EA0B0153465A46084313D0114653EA0100A5
:2004400019D0C8F14002504600F04FF805460E4650465946424600F039F8084305D001202D
:2004600004E020463946BDE8F08D0020054346EAE0762C4337430A986305E40AA0EB08002F
:200480000022FD0A44EA47540A3002D500200146E9E7010510196941DDE908450019694173
:2004A000BDE8F04DA2E70000064C074D06E0E06840F0010394E8070098471034AC42F6D36C
:2004C000FFF7BCFD98D80004B8D80004202A04DB203A00FA02F1002070479140C2F1200377
:2004E00020FA03F3194390407047202A04DB203A21FA02F00021704721FA02F3D040C2F1CE
:2005000020029140084319467047000040F00100004700000149C96800F002B8DCE5000425
:2005200010B520F07842002009E000BF51F83040944202D89B68934206D8401C80B201EBCB
:20054000C003DC68002CF1D101EBC000406810BDF0B50D4C002202EB820304EB430500219B
:200560006B7805E06E18475CB678BE4202D1491C8B42F7DC8B4201D10120F0BD521C052A7A
:20058000E9DB0020F0BD000080D20004034900EB800001EB400010307047000070D2000454
:2005A0002DE9FC41144CB4F90200002821DA6A464FF00061002007F07FF9104D00216E46A5
:2005C00001EB810205EB420300205A7806E01F1836F810C0BF78674502D1401C8242F6DCC2
:2005E000824201D1618002E0491C0529E8DBB4F90200BDE8FC810000D8E5000480D2000464
:200600002DE9F041002000F049F821484168026801EB011102EBC10540226988016105F16A
:200620000801C16040311B48FFF790FE1A4C184800261430C4F8AC00A4F1E000C4F8B000BF
:2006400000F11C07A4F8C660F8434FF00062C4E900022146A1F58E706B6801F071FE783063
:2006600014D00C4801F0C2FDA4F18405014628603A46002001F0A6FDA4F58E706761C5E964
:20068000010485F880600020BDE8F081FEE70000DCE5000468920104C493010410B5074CA5
:2006A00040B9FFF77DFF6060002800DAFEE7FFF76DFFA0600248206010BD0000DCE500046A
:2006C000C4D200042DE9F047471800249A469046054626464FF0010919E051462846FFF706
:2006E0001FFF66B158F83410814205D108EBC4014A68521C4A6008E0641C092C0CD008EBAA
:20070000C40248F83400C2F804900544761CBD42E3D30020BDE8F0870620FBE7FFF770BF58
:200720002DE9FF4F91B01D461E9C581C00D0012092460B9181464FF4805622680027314616
:2007400020469047069060B12268314620469047079030B1119801F0B0FA04F05BFD002847
:2007600003DA022015B0BDE8F08FB04642F210710220401C8842FCDB4FF022408068A0F5A9
:200780001451233907D1BAF1006F04DD4246AAF10060069902E042465046069904F040FDD3
:2007A00008B10820DEE7C2445FF00006A8EB0600C7F58051CDE909100020B9F1000F03D097
:2007C000A94201D9012009950AA9CDE9001006980DAA02928319079809AAC119119801F0D1
:2007E00003F983460A9807990644099807442D1A3A460B9801F0BCFE48B1626820460699DF
:20080000904762682046079990470920AAE70B98384400270B90BBF1000F1FD1B9F1000F5B
:2008200000D0DDB1DDE90910084306D005B3154804F014FE4645B9D198E7B9F1000F03D11E
:200840009DF83400012809D062682046069990476268204607999047012083E762682046C5
:20086000069990476268204607999047584679E76268204606999047626820460799904710
:2008800000206FE7FECAADDE12480021816012480122C0F8482100BFD0F848219207FBD53C
:2008A000C0F84811D0F848219207FBD44FF05A320A604A60D0F86011C907FBD00749C0F8D3
:2008C00060110749C0F86011D0F86011C907FBD070470000000011A2000005A00000030F39
:2008E000000043087FB505461E46684601F021FC00282CD132466946284600F035F800280F
:2009000025D1039840F6FF71B0F1804F01D3144903E0B0F5800F00D3124944188C438442C9
:2009200000D20446686910B1A86AA04209D03146284601F0AEF932682146304690476861A8
:2009400038B1AC629DE80F0085E80F00002004B070BD3146284601F0A6F90220F7E700001A
:20096000FFFF3F00FFFF0F0070B50546087809794FF44074084484402869164604F2367427
:2009800010B1686DA0420AD01146284601F08BF932686100304690476C65286108B1002050
:2009A00070BD022070BD2DE9F74FD0E90D519AB0D0F810E01191C16B1791016C1691416C0F
:2009C0001991027A012101FA02F2521E149202799140491E139101681891D0F81480816A1A
:2009E0000D91D0E90BA1446A099100210791D0E907318269149FB3F1807F0AEA07090EEBC4
:200A0000451707EB490CCDF804C0BCF8007004D212F8016B1B0246EA0121DE0A7E43B1422F
:200A20007DD2C7F5006307EB5313ACF80030099FB1460EF66C665AEA070313D0D4B1234688
:200A40004344139F13F801CC189BC3F108032CFA03FC0AEA0703189FBB40634403EB430363
:200A600006EB43260AF1010A072D7DD2042D03D22B4602E00D9BE3E70323ED1A7788B9F1F2
:200A8000807F05D212F8013B4FEA092943EA01214FEAD9237B43994207D29C46C7F50063D8
:200AA00007EB53137380022306E0A9EB030CC91AA7EB5713738003239946BCF1807F36F88C
:200AC00019B005D212F8013B4FEA0C2C43EA01214FEADC2707FB0BF7B94209D23B46CBF519
:200AE000006C0BEB5C1726F819704FEA490709E0ACEB0703C91BABEB5B1726F819704FEA9B
:200B000049077F1CBB46B3F1807F36F81BC004D212F8017B1B0247EA0121DF0A00E0B9E20D
:200B200007FB0CF7B94209D2B946CCF500630CEB531726F81B704FEA4B0309E0A3EB07099F
:200B4000C91BACEB5C174FEA4B0326F81B705B1C9B46B9F1807F36F81B30109307D24FEA48
:200B6000092912F8013B00E0ACE043EA0121109B4FEAD9275F43B9420AD23B46109FC7F5F9
:200B8000006C07EB5C1726F81B704FEA4B070AE0A9EB0703C91B109FA7EB571726F81B708C
:200BA0004FEA4B077F1CB946B3F1807F36F819C004D212F8017B1B0247EA0121DF0A07FBAF
:200BC0000CF7B94209D23B46CCF500670CEB571726F819704FEA490708E0DB1BC91BACEBA5
:200BE0005C1726F819704FEA49077F1CB946B3F1807F36F819B004D212F8017B1B0247EA74
:200C000001214FEAD32C0CFB0BFC614509D26746CBF5006C0BEB5C1326F819304FEA4903C1
:200C20000AE0A3EB0C07A1EB0C01ABEB5B1C4FEA490326F819C05B1C9B46B7F1807F36F8DA
:200C40001BC004D212F8013B3F0243EA0121FB0A03FB0CF3994209D29946CCF500670CEB57
:200C6000571326F81B304FEA4B0309E0A7EB0309C91AACEB5C174FEA4B0326F81B705B1CFF
:200C80009B46B9F1807F36F81BC005D212F8013B4FEA092943EA01214FEAD92707FB0CF7AC
:200CA000B94207D23B46CCF500670CEB571726F81B70DEE1A9EB0703C91BACEB5C1726F840
:200CC0001B70E0E1119BE71A9C4201D20D9B00E000233B444FF4807718F8033001970A2DF4
:200CE00001D2032700E006275B000B93ED1B03F4807306F500770A9307EB43039B1C159359
:200D0000B3F800B0B9F1807F05D212F8013B4FEA092943EA01214FEAD92303FB0BF39942EC
:200D20000CD29C46CBF500670BEB5713159F3B80022305930A9F019BBB430BE0159FA9EBCA
:200D4000030CC91AABEB5B133B80032305930A9B03F4807399460B9B06EB49075B000B93D6
:200D600003EA090307EB43070A93059BBCF1807F07EB43031593B3F800B005D212F8013BFD
:200D80004FEA0C2C43EA01214FEADC2303FB0BF399420DD29C46CBF500670BEB5713159F88
:200DA0003B80059B5B0005930A9F29EA07030DE0159FACEB030CC91AABEB5B133B80059B96
:200DC0005B005B1C05930A9F09EA070399460B9B06EB49075B000B9303EA090307EB43070F
:200DE0000A93059BBCF1807F07EB43031593B3F800B005D212F8013B4FEA0C2C43EA0121F2
:200E00004FEADC2707FB0BF7B9420FD23B46159FCBF5006C0BEB5C1CA7F800C0059F7F0065
:200E20000597DDF828C029EA0C0710E0ACEB0703DDF854C0C91BABEB5B17ACF80070059F15
:200E40007F007F1C0597DDF828C009EA0C07B9460B9F06EB490C7F000B9707EA09070CEB11
:200E6000470C0A97059FB3F1807F0CEB47071597B7F800B004D212F8017B1B0247EA01211B
:200E8000DF0A07FB0BF7B9420DD2BC46159BCBF500670BEB57171F80059B5B0005930A9F73
:200EA00029EA07030DE0A3EB070CC91B159FABEB5B133B80059B5B005B1C05930A9F09EA8A
:200EC000070399460B9B06EB49075B000B9303EA090307EB43070A93059BBCF1807F07EB39
:200EE00043031593B3F800B005D212F8013B4FEA0C2C43EA01214FEADC2707FB0BF7B94291
:200F000010D23B46CBF5006C0BEB5C17DDF854C0ACF80070059F7F000597DDF828C029EA4D
:200F20000C0710E0ACEB0703DDF854C0C91BABEB5B17ACF80070059F7F007F1C0597DDF8F5
:200F400028C009EA0C07B9460B9F06EB490C7F000B9707EA09070CEB470C0A97059FB3F15F
:200F6000807F0CEB47071597B7F800B004D212F8017B1B0247EA0121DF0A07FB0BF7B9426E
:200F80000DD2BC46CBF500670BEB5713159F3B80059B5B0005930A9F29EA07030DE0A3EBA6
:200FA000070CC91B159FABEB5B133B80059B5B005B1C05930A9F09EA070399460B9B06EBA1
:200FC00049075B000B9303EA090307EB43070A93059BBCF1807F07EB43031593B3F800B06F
:200FE00005D212F8013B4FEA0C2C43EA01214FEADC2303FB0BF399420DD29C46CBF500671D
:201000000BEB5713159F3B80059B0A9F4FEA430B29EA07030DE0ACEB030CC91A159BABEB58
:201020005B171F80059B0A9F5B0003F1010B09EA07030B9FBCF1807F03EA470706EB430336
:2010400003EB470303EB4B09B9F8007005D212F8013B4FEA0C2C43EA01214FEADC267E431C
:20106000B14209D23346C7F5006607EB5616A9F800604FEA4B0609E0ACEB0603891BA7EB5F
:201080005716A9F800604FEA4B06761C08F80460641CFEE3A3EB060B891BA7EB5713ACF81E
:2010A00000300EEB45060A96B6F8807106F5C076BBF1807F05D212F8013B4FEA0B2B43EAE8
:2010C00001214FEADB237B43994209D29B46C7F5006307EB531333800EF264660C35B6E097
:2010E000ABEB030CC91AA7EB57133380099B53EA0A0338D00A9BBCF1807F03F5CC730093A8
:20110000B3F800B005D212F8013B4FEA0C2C43EA01214FEADC2606FB0BF6B1423ED2009BBC
:20112000CBF500670BEB57171F80DDF804C0B6F1807FBCF8E0710CF5F07C04D212F8013BB8
:20114000360243EA0121F30A7B4399421ED2C7F5006607EB5616ACF80060119EA71BB44297
:2011600005D20D9E04E01DB00120BDE8F08F00263E440AF1010A18F8066008F80460641CEF
:20118000072D01D20925D8E30B25D6E3A6EB030BC91AA7EB5713ACF8003051E0ACEB06074F
:2011A000891B009EABEB5B134FF0807B3380DDF828C05F45BCF8B0610CF5D87C04D212F8A1
:2011C000013B3F0243EA0121FB0A7343994208D29B46C6F5006306EB5313ACF80030179BF7
:2011E0002BE0FF1AC91AA6EB5613ACF80030DDF828C05F45BCF8C8610CF5E47C04D212F89B
:20120000013B3F0243EA0121FB0A7343994208D29B46C6F5006306EB5313ACF80030169BB7
:2012200009E0A7EB030BC91AA6EB5613ACF80030169E199B1996179E1696119E17961193FC
:20124000072D01D2082500E00B250EF66826BBF1807F3388109305D212F8013B4FEA0B2B23
:2012600043EA0121109B4FEADB275F43B94272D2C3F5006C03EB5C13338006EB091303F123
:201280000409DE88B7F1807F04D212F8013B3F0243EA01214FEAD72C0CFB06FC614508D2C3
:2012A000C6F5006706EB5716A9F802606346022608E0A6EB5616A9F80260A7EB0C03A1EBC5
:2012C0000C010326B346B3F1807F39F81BC004D212F8016B1B0246EA0121DF0A07FB0CF787
:2012E000B94209D23E46CCF500630CEB531729F81B704FEA4B0708E0DE1BC91BACEB5C1709
:2013000029F81B704FEA4B077F1CB6F1807F39F817B004D212F8013B360243EA01214FEA81
:20132000D62C0CFB0BFC614508D26346CBF5006C0BEB5C1629F817607E0009E0A6EB0C0341
:20134000ABEB5B1629F817607E00A1EB0C01761C083EC0E0FFE7109BABEB070CA3EB531331
:201360003380B31C0193C91BB6F802B0BCF1807F05D212F8013B4FEA0C2C43EA01214FEA51
:20138000DC2707FB0BF7B94275D2CBF5006C0BEB5C13DDF804C0B7F1807FACF8003006EB6E
:2013A000091303F58279B3F8066104D212F8013B3F0243EA01214FEAD72C0CFB06FC614575
:2013C00008D2C6F5006706EB5716A9F802606346022608E0A6EB5616A9F80260A7EB0C0356
:2013E000A1EB0C010326B346B3F1807F39F81BC004D212F8016B1B0246EA0121DF0A07FBDD
:201400000CF7B94209D2CCF500633E460CEB531329F81B304FEA4B0708E0DE1BC91BACEB9B
:201420005C1C4FEA4B0729F81BC07F1CB6F1807F39F817B004D212F8013B360243EA0121D1
:201440004FEAD62C0CFB0BFC614508D26346CBF5006C0BEB5C1629F817607E003BE0A6EBC4
:201460000C03ABEB5B1629F817607E00A1EB0C01761C30E0FFE7ACEB0703C91BDDF804C001
:20148000ABEB5B1706F50179ACF8007001264FF0807B39F816C05B4504D212F8017B1B023A
:2014A00047EA0121DF0A07FB0CF7B94208D23B46CCF500670CEB571C29F816C0760007E0AF
:2014C000DB1BC91BACEB5C1729F816707600761CFF2EDED9F03E07960C2D7DD3042E00D33C
:2014E00003260EEBC6164FF0807BB6F862C306F558795B4504D212F8016B1B0246EA0121BA
:20150000DF0A07FB0CF7B94208D23E46CCF500630CEB5317A9F80270022706E0DE1BC91B00
:20152000ACEB5C13A9F8023003275E4539F817C004D212F8013B360243EA0121F30A03FB5F
:201540000CF3994208D21E46CCF500630CEB531329F817307F0007E0F61AC91AACEB5C132B
:2015600029F817307F007F1CB6F1807F39F817C004D212F8013B360243EA0121F30A03FB9D
:201580000CF3994208D21E46CCF500630CEB531329F817307B0007E0F61AC91AACEB5C13EF
:2015A00029F817307B005B1C9B46B6F1807F39F81BC004D212F8013B360243EA0121F70A9A
:2015C00007FB0CF7B9420BD2CCF500660CEB56163B4629F81B6000E077E14FEA4B0608E0DD
:2015E000F31BACEB5C1629F81B60C91B4FEA4B06761CB346B3F1807F39F81BC004D212F8B0
:20160000016B1B0246EA0121DF0A07FB0CF7B94209D2CCF500633E460CEB531329F81B30BA
:201620004FEA4B0708E0DE1BC91BACEB5C1729F81B704FEA4B077F1CB6F1807F39F817B0E0
:2016400004D212F8013B360243EA01214FEAD62C0CFB0BFC614508D26346CBF5006C0BEB53
:201660005C1C29F817C07E0009E0A6EB0C03ABEB5B1629F817607E00A1EB0C01761C403E2D
:20168000B346042E45D3B4464FF0FF3606EB5C060A960BF00106B61CBCF10E0F3AD20A9F53
:2016A0004FF0010906FA07FB0EEB4B07A7EB4C0606F25E5600964E46009FB3F1807F37F869
:2016C00016C004D212F8017B1B0247EA0121DF0A07FB0CF7B9420AD23B46CCF500670CEB03
:2016E0005717DDF800C02CF8167076000BE0DB1BC91BACEB5C17DDF800C04BEA090B2CF8F6
:2017000016707600761C0A9F4FEA49097F1E0A97D2D1BCE0DDF828C04FF08079ACF1040CE8
:201720004B4504D212F8017B1B0247EA01215B08C91ACF1707EB46061F40761C3944BCF1C8
:20174000010CEDD14FEA061BBEF846660EF2446CB3F1807F04D212F8017B1B0247EA0121E3
:20176000DF0A7743B94209D2C6F5006306EB5313ACF802300223B94601930AE0A3EB070965
:20178000A6EB5613C91BACF8023003234BF0010B0193019EB9F1807F3CF8166005D212F8C1
:2017A000013B4FEA092943EA01214FEAD923734399420AD29946019FC6F5006306EB53139D
:2017C0002CF81730019B5B000CE0019FA9EB0309C91AA6EB56132CF81730019B4BF0020B4F
:2017E0005B005B1CB9F1807F3CF81360109605D212F8016B4FEA092946EA0121109F4FEA2F
:20180000D9267E43B1420AD2B1463E46C7F5006706EB57162CF813605B0001930CE0A9EB37
:201820000609891B109E4BF0040BA6EB56162CF813605B005B1C0193019EB9F1807F3CF887
:20184000167005D212F8013B4FEA092943EA01214FEAD9267E43B1420AD23346C7F50066C8
:2018600007EB56166746DDF804C027F81C600BE0A9EB0603891BA7EB57166746DDF804C0B8
:201880004BF0080B27F81C60BBF1FF3F13D0169E00E052E01996179E1696119E17960BF164
:2018A00001061196099E66B1099FBB451ED2132D0AD2072509E0079E0C3D06F5897607966E
:2018C00042E0D34512D2F2E70A25079E06F102091B9EB6EB040C09D04E46CC4500D3B44686
:2018E000119EA71BB44203D20D9E02E044623AE400263E44A9EB0C0707970D9FE244BF1BC2
:2019000067450DD308EB0407A6EB040B07EB0C09644417F80B6007F8016B4F45F9D10CE0BF
:2019200018F8067008F804700D9F641C761CBE4200D10026BCF1010CF2D11B9EB44203D2F7
:201940001C9EB242FFF456A8B3F1807F04D212F8016B1B0246EA01218261C0E90731079926
:20196000C0F82CA044628164119981631799C163169901641999456341641DB00020BDE851
:20198000F08F2DE9F04117460D4604464FF48976206B294638B9E26AE068801A626AAB1A9B
:2019A000834200D911183A462046FEF7FCFF002818D1206B20B9E16AE068814200D3206369
:2019C0002946204600F086FB606AA84205D2A069B84202D2A06CB042DAD3A06CB04200D9DD
:2019E000A6640020BDE8F0812DE9FF4F83B00446DDF840A016680020DAF8008010609B46D0
:201A00009146CAF8000000BFCDF80880D4E90901884201D1002060620746C81BB04201D2E7
:201A2000002001E01198B919129A02ABCDE900025A46204600F026F800900298DAF80010F9
:201A400083440144A8EB0008CAF80010606AC51B60692A46C1190498FEF778FC0498761B1E
:201A600028440490D9F800004119C9F800100098002803D10DB1002EC6D1002007B0BDE8D7
:201A8000F08F00002DE9FF4F83B04FF00008119F1D68C3F800801E4692460446049900F066
:201AA00019FB87F8008004F15C004FF0020B0190D6E0E06C50B925E001991AF8013B421C8F
:201AC000A26543543068401C6D1E3060A06D15B10528F1D303E0052801D2032024E094F8FF
:201AE0005C0000281ED1D4F85D0094F8601000BA20F0FF00084320624FF0FF30E0610020E9
:201B0000E064A06500200090616A0498814215D3A06C08B9216A31B1109939B160B100BF1D
:201B200087F800B0A8E00420387001E087F800B0002007B0BDE8F08F01200090206DD0B158
:201B4000207821794FF4806308444FF440718140002001F23671226903E000BF22F81030EB
:201B6000401C8842FAD3012060642064E063A063002060632065A06D18B180464FF0000977
:201B800036E0142D01D30098A0B12A465146204600F0A8F828B1009909B10228C0D15246B5
:201BA0000BE02A4651460198FEF7D0FBA565306828443FE00AEB0502143AC4F818A0204689
:201BC0000499FFF7DEFE88BBA169A1EB0A003168824401442D1A316042E000BF1AF809102B
:201BE00004EB080009F1010980F85C1008F10108B8F1140F01D2A945F0D3C4F85880B8F177
:201C0000140F01D3009848B142462046019900F069F860B1009909B1022881D1019AA261E5
:201C200020460499FFF7ADFE00B905E024E0316801EB0900306050E7A069001B5C3880458C
:201C400003D3A8EB0000814501D20B2071E7A9EB00003168824401442D1A00203160A065CA
:201C6000A06CB0F5897F7FF424AF206A20B901203870206A0028E9D001205AE770B50C46F5
:201C8000054600F010F821462846BDE87040AFF3008010B50A4604464169536810469847BC
:201CA0000020606110BD10B50A46044601695368104698470020206110BD00210122416268
:201CC0001146AFF3008010B501240023C0E91234836511B1C36204650363002A00D004658E
:201CE00010BD00002DE9F04F8B1890F80880C66A4FF0010A0AFA08F5B1466D1ED0F834C056
:201D000002692E4002EB4C15D0E9077405EB460E4FF0807BBEF800805F4506D2994277D214
:201D200011F8015B3F0245EA0424FD0A05FB08F5AC427CD2066B02F66C6216B95FEA090608
:201D40001BD090F804800AFA08F6761E09EA06070668D0F81480B146B740466A06B9866ADF
:201D6000761E18F80680C9F1080628FA06F807EB080606EB460602EB4622BCF1070F1BD20F
:201D800001205F4632F810C0BD4206D29942C6D211F8016B2D0246EA0424EE0A06FB0CF642
:201DA000B44202D23546400003E0AD1BA41B4000401CFF28E6D937E0876B466AA6EB070C55
:201DC000BE4201D2866A00E0002640696644875D4FF4807001267F0007EA000902EB4008FB
:201DE00008EB490C5D453CF8168006D2994296D211F801CB2D024CEA04244FEAD52C0CFB71
:201E000008FC644506D26546760020EA090009E0D4E00CE07600A5EB0C05A4EB0C0400EAE0
:201E20000900761CFF2ED6D94FF0010A4AE17F1B641B02EB4C004FF4C075DC462D5A674597
:201E400006D29942A3D211F8018B3F0248EA04244FEAD72808FB05F8444506D24FF0000E44
:201E600002F264604FF0020A61E0A7EB0807A4EB0805B0F898814FF0030A674506D2994275
:201E800085D211F8014B3F0244EA0525FC0A04FB08F4A5421BD24FF4F070644530F80E7036
:201EA00006D29942A3D211F8010B240240EA0525E00A7843854206D2584501D299427DD28D
:201EC0000320BDE8F08FA4EB00082C1A2BE03F1B2C1B4FF4D87567452D5A06D299426DD27D
:201EE00011F8018B3F0248EA04244FEAD72808FB05F8444517D3A7EB0805B0F8C801A4EB68
:201F00000804654506D2994258D211F8017B2D0247EA0424EF0A4743BC4201D2B84602E0ED
:201F2000A5EB0708E41B4FF00C0E02F66820D845078807D2994241D211F8015B4FEA0828E9
:201F400045EA04244FEAD8257D43AC4207D200EB06164FF000094FF0080C361D24E0A8EBE1
:201F6000050C641B4588DC4507D2994226D211F8017B4FEA0C2C47EA04244FEADC276F43FA
:201F8000BC4208D200EB06164FF008093D46CC4606F5827608E0ACEB0705E41B00F5017694
:201FA0004FF010094FF4807C5FF001005D4536F8108008D2994201D22D0200E086E011F8D4
:201FC000017B47EA0424EF0A07FB08F7BC4202D23D46400003E0ED1BE41B4000401C604572
:201FE000E4D3A0EB0C004844BEF1040F6AD2042800D3032002EBC01C01205F460CF5587C83
:20200000BD423CF8108006D299425FD211F8016B2D0246EA0424EE0A06FB08F6B44202D25C
:202020003546400003E0AD1BA41B4000401C4028E6D34038042845D34FF0FF3C0CEB50063B
:202040000E280CD200F0010C0CF1020C0CFA06FC02EB4C02A2EB400202F25E5214E0361F65
:20206000BD4206D2994231D211F8010B2D0240EA04246D08601B0CEBD0702840241A761EB4
:20208000EED1042602F244625FF00100BD4232F8108006D2994219D211F801CB2D024CEADC
:2020A00004244FEAD52C0CFB08FC644502D26546400005E04000A5EB0C05A4EB0C04401C8A
:2020C000761EE3D15D4503D2994201D30020F8E65046F6E6F0B5846C002C29D0B4F5897FB7
:2020E00026D2D0E909372246C91A4669856B914200D20A46016B39B9D0F82CC0C168A1EB49
:202100000C0C944500D80163C16A1144C162A11A81640AE0591B521EAB4201D23C4600E05F
:2021200000242144715CF1545B1C002AF2D14362F0BD052A0DD30B79D1F8012063F31F62FA
:202140004FF480539A4200D21A46C2600978E12901D3042070470922B1FBF2F302FB131320
:20216000B1FBF2F105220360B1FBF2F38360B1FBF2F302FB131141600020704710B5044699
:2021800090F8800000280BD1D4E901100A6804F10C019047002800DAFEE7012084F8800016
:2021A00010BD000001460248806805F032BD00004093010401460248806805F01ABD0000D8
:2021C0004093010470B50D460646144640211046FEF7D5F8044822462946C3683046BDE827
:2021E0007040FEF76FBA0000DCE50004024610B50020014606E000BF02EBC104491C646850
:2022000004FB030052F83130002BF5D110BD000010B5074C94F90000401D06D1FEF77EFA0D
:202220000448FFF7ABFF00202070002010BD000030E600044093010410B511B1012904D09E
:20224000FEE7D0F8D410884708E090F8C110C22904D140690068B0F5802F01D0002010BDFA
:20226000C22010BD70B50C462A4901602A4941602A4981602A49C1602A4901612A4941617E
:202280002A4981612A49C1612A490025C0E9081529498562C0E90B512849C0E90D5102F02E
:2022A000CFFCB0F1807F01D9042000E0032084F8C50054F8B00F45742168AF2088722168D2
:2022C0009F20487221680220087021682020887121685220C8712168D82008722168B02018
:2022E000887021683020C8702168062048702168B92088742168AB20C87421680520087456
:20230000258144F8A45C44F8A85C04F8A05C2074002070BD97E400045BE40004E3DB00043E
:202320003FE30004FFE1000447E10004B5E000045DE00004E5DF0004B7DF0004398200046C
:2023400070B505000C466FF0770031D0002C2FD0D4F8B01000292BD0D4F8AC10002927D0A7
:202360006260A4F8BA3021462846FFF77BFFD4F8B010AF20887204F1C1010E46204606F014
:20238000BEF894F8C100FF2804D018B13046FEF7DFF838B9D4F8B0109F2088723146204621
:2023A00006F0ADF821462846BDE8704000F050B870BD000010B5D1F8AC000122022302703F
:2023C0004370082383700423C3703C230371802343716023C371D1F8B0302B20D873D1F8E9
:2023E000B0305873D1F8B0402F23A373D1F8B0400523E372D1F8B0301A73D1F8B020507448
:20240000162081F8C00091F8C200202819D191F8C33075207A22182B09D1D1F8B030987055
:20242000D1F8B030DA7091F8C230202B09D191F8C330162B05D1D1F8B0309870D1F8B0004C
:20244000C2700248C1F8D400002010BD45DF000491F8C120C22A04D0EF2A0AD0F82A0ED041
:20246000FEE7D1F8C82042F00402C1F8C820FFF7A1BFD1F8C82042F00202C1F8C82000F01F
:2024800001B8000010B551F8AC0F012302220370427080228270C2703C24047142714A684D
:2024A0009F2090724A683520D0734A6850734A680520D072486803734A68752090704A6864
:2024C0007A20D0701620087501488862002010BD0FDF00042DE9FC43234900224FF4804374
:2024E000D1E90001CDE9000120481146C0F800234FF0FF3909EB13231446E84643EA024632
:2025000040F225350023002238F823703F0447EA043700BFC0F80013C0F8086347EA423C1C
:20252000C0F800C3D0F800C34CEA050CC0F800C3D0F818C35FEA8C7CFAD5D0F818C35FEA24
:20254000CC7C04D0C0F800134846BDE8FC83521C012ADFD95B1C012BD5D9641C012CD1D9E9
:20256000C0F800130020F0E768D20004000005A02DE9F05F044692465044401E060B250BFC
:2025800028038B46A04200D06D1C4FF0224742F223584FF0006913E0BA682803424505D168
:2025A000484503D90021A0F1006000E0002102F009FE002803DA6FF00600BDE8F09F6D1C7F
:2025C000B542E9D9B968414506D14C4504DD52465946A4F1006002E052465946204602F0B5
:2025E00031FE002802DA4FF0FF30E6E70020E4E700B5FFF76FFF002801D04FF0FF3000BD45
:20260000074845F23141C0F8701145F20901C0F8781145F24601C0F8801100207047000069
:20262000000005A030B5144D1F240020C5F89000C5F8D000C5F8D800C5F8E000200640EAF0
:20264000044040EA04202043C5F8D800C5F8D000FFF7CEFF10B1641EF0D501E0002C0ADAA7
:2026600001242004C5F8E000FFF7C2FF002802D0641C1F2CF5DD30BD000005A0010509483D
:20268000C0F86011D0F8601141F48031C0F86011D0F86011C907FBD0D0F86001C0F30720F2
:2026A00070470000000005A00E48A0F140010268CA6042680A6182684A61C2688A610269D8
:2026C000CA6142690A6282694A62C2698A62026ACA62426A0A63826A4A63C26A8A63006B3C
:2026E000C8637047A0E5000402E008C8121F08C1002AFAD170477047002001E001C1121F6C
:20270000002AFBD17047000010B50A4614A1002001F00DFD184C19A10020226801F007FD6A
:20272000206868B101280FD0022811D0032813D070231B4A1BA1002001F0F9FC002010BD30
:20274000012020601A4810BD02202060194810BD03202060184810BD00202060174810BD3D
:202760005F626C5F616C6C6F632073697A65203D202564200D0A000044E500045F626C5FF1
:20278000616C6C6F63206C7A6D615F616C6C6F635F636F756E74203D202564200D0A00002B
:2027A000D4D00004653A2025732025640A0D000088F0000488300104887001048880010417
:2027C000F0B5154B0F210020D3F82422D3F83472C2F38026C2F3C015C2F3C004C2F380028D
:2027E0000DB9072108201EB901F00B0140F004001CB901F00D0140F002001AB901F00E01E2
:2028000040F00100090341EA002007F001010843C3F83402F0BD0000000001A22DE9FC5F3A
:20282000334C40EA0120164620802388314A32A1002001F07CFC251F4CF6FF702880022091
:20284000FDF717FC48F6FF702880251D1EB101202880112000E000202880254940F20120A8
:20286000203108802B48006800F070682A4801682A4A01F080470E21C2F83812254A4FF0F4
:20288000706A0832C2F800A0CA052249091D0A604FF0804BC0F804B020882088A14601E072
:2028A000B9F800000004FBD4F020FDF7E2FB1048083001881A2251430C0B06B1A4000088D0
:2028C000B9F80010CDE900102B880A4A14A1002001F02DFC0F490831C1F800A00E48C0F883
:2028E00008B00A1FC2F8008047602046BDE8FC9F040404A2BCD0000425733A204142495321
:20290000545F46514D54525F434F4E313D2578200A0D0000300C02A2000002A2000001A2D2
:2029200025733A2041424953545F46514D54525F434F4E323D25782C434F4E313D25782CBB
:20294000444154413D2578200A0D000000487047000001084FF4B01070470000004870478B
:20296000000022084FF000607047000002491120C1F8600370470000000004A20B4810B5CA
:2029800050F8801F40F2AF1441F001010160016840F2FC72914341EA84010160026804A1CA
:2029A000002001F0C4FB0848446010BD000011A220424C5F4443584F5F4341505F49442059
:2029C0003D202575200D0A003CE5000470B50C48D0F8805004F0B8F9044603462A4609A141
:2029E000002001F0A4FB34B1114841682046BDE8704004F031BA0FA1002001F098FBFEE76D
:202A0000000011A220424C5F4443584F5F4341505F4944203D202575202C2065667573650E
:202A2000206361706964203D2575200D0A0000003CE500044572726F7221212120434150C1
:202A400049443D3D302121210D0A00002DE9F0418046FFF783FF284901EB4814A168E66830
:202A600047186569FFF77AFF024624A1002001F05EFB42462EA10020236901F058FB424674
:202A800039A10020A36801F052FB424644A10020E36801F04CFB42464FA10020636901F08E
:202AA00046FB3A465AA1002001F041FB2A4660A1002001F03CFB324665A1002001F037FB93
:202AC000FFF750FF3C1AFFF74DFF301A684B2246294602F05DFE02000CD066A1002001F002
:202AE00026FB96236B4A6CA1002001F020FB0420BDE8F0810020FBE760F000047020616429
:202B000064722020202020202020202020202020202020202020202020202020202020201F
:202B20002020202020203D202578200A0D000000666F74615F686561645F6275662E6D5F73
:202B400062696E5F696E666F5B25645D2E6D5F62696E5F6C656E67746820202020203D20DF
:202B60002578200A0D000000666F74615F686561645F6275662E6D5F62696E5F696E666F0C
:202B80005B25645D2E6D5F62696E5F6F666673657420202020203D202578200A0D0000000A
:202BA000666F74615F686561645F6275662E6D5F62696E5F696E666F5B25645D2E6D5F6203
:202BC000696E5F73746172745F61646472203D202578200A0D000000666F74615F6865610F
:202BE000645F6275662E6D5F62696E5F696E666F5B25645D2E6D5F706172746974696F6E82
:202C00005F6C656E20203D202578200A0D0000006C7A6D615F736F75726365202020202061
:202C200020202020202020203D202578200D0A006C7A6D615F646573745F73697A65202046
:202C400020202020202020203D202578200D0A006C7A6D615F646573745F61646472202046
:202C600020202020202020203D202578200D0A004CE50004666F746120636F6D707265732B
:202C80007320737461747573203D202564200D0A00000000DDD00004653A2025732025640F
:202CA0000A0D00002DE9FF5F4448D0E9034102918568A0F500600190FFF754FEA4EB00081B
:202CC000FFF750FE02994FF400792144081AA0F1010A404602F021FA0390404600F0C8F8DA
:202CE0000090FFF73BFE4419FFF73CFEA4EB000B5FE0039902F066FA04000BD040F27F131E
:202D00002F4A30A1002001F012FA224630A1002001F00DFA00980026B0FBF9F74946002CE7
:202D200029D02AE00A465846019902F079FA040009D04FF4CE73224A22A1002001F0F7F912
:202D400022462CA110E0CB444A464046019902F079FA04000CD04FF4D373194A19A1002084
:202D600001F0E5F922462BA1002001F0E0F904E04946C844761CBE42D4D30098054484B198
:202D800040F2B3130E4A0FA1002001F0D0F92346424629A1032001F0CAF9042004B0BDE84A
:202DA000F09F642002996843B0FBF1F1032000F08BFC4046D0459CD90020EFE760F0000439
:202DC00044D10004653A2025732025640A0D000068616C5F666C6173685F65726173652092
:202DE0002C20737461747573203D202564200D0A0000000068616C5F666C6173685F7265CE
:202E00006164202C20737461747573203D202564200D0A0068616C5F666C6173685F7772B6
:202E2000697465202C20737461747573203D202564200D0A000000004572726F72207768FA
:202E4000656E2070726F63657373696E67206F732062696E20726177207365656B2025640C
:202E60002C2073746174757325640A0D0000000010B5FFF797F9411C09D0FFF79BF904466D
:202E8000024607A1002001F052F9204610BDA523084A09A1002001F04AF94FF4805010BDBB
:202EA000626C6F636B2073697A65203D2578200A0D000000F5D00004653A20257320256432
:202EC0000A0D00002DE9F04FDFF89491A3B04F460024D9F80880D9F81C60D9F81050FFF7B1
:202EE0003DFDB9694718FFF73DFD381A2290A9F5006A0DF1600B01A802F010FDFFF72EFDA9
:202F000000EB0807FFF72EFD3F1A56A1002001F00EF901A803F026FE4FF4007833E000BFE1
:202F2000D9F8100000902B463A4652A1002001F0FEF84046854211D302465146384602F0B5
:202F40006FF9040004D14246514601A803F020FEA5F5007507F50077ACB106E02A4651468B
:202F6000384602F05DF9040007D040F21223484A48A1002001F0DBF807E02A46514601A853
:202F800003F006FE01E0002DCAD145A1002001F0CEF81DA901A802F055FC14B140F22223E6
:202FA00027E043A1002001F0C2F800251DAC43A1625D002001F0BBF86D1C142DF7DB3BA18E
:202FC000002001F0B4F8142E324606D03CA1002001F0ADF840F231230BE05946229802F055
:202FE0001FF902000ED03AA1002001F0A0F840F24723274A27A1002001F099F8052023B0E6
:20300000BDE8F08F2AA1002001F091F8002518AE2AA1725D002001F08AF86D1C142DF7DB73
:2030200022A1002001F083F80020315C225C91420CD02FA1002001F07AF840F25623144A0B
:2030400014A1002001F073F80620D8E7401C1428EBDB2DA1002001F06AF80020CFE70000E5
:2030600060F0000473686131207374617274200D0A000000736861312075706461746520DA
:203080002578202825642F256429200D0A00000056D10004653A2025732025640A0D000068
:2030A000736861312066696E697368200D0A000064756D7020736967203D20002578200078
:2030C0007369675F6C656E203D2025640D0A000068616C5F666C6173685F726561642073C2
:2030E0007461747573203D202564200D0A000000696E7465677269747920636865636B2045
:203100006661696C0D0A0000696E7465677269747920636865636B20706173730D0A000011
:203120001CB50821684600F0EDF920B140F25933094A0AA108E00C490098B1EB002F08D00C
:20314000054A40F25E3309A1002000F0F0FF00201CBD01201CBD0000C8D10004653A202540
:20316000732025640A0D0000004D4D4D657869743A2025732025640A0000000010B590B0D1
:2031800001244021684600F0BDF938B140F22A330E4A0FA1002000F0CAFF14E00F49002090
:2031A0006A4600BF02EB80031B698B4200D00024401C0828F6D334B109A1002000F0B7FF41
:2031C000012010B010BD0020FBE70000AAD10004653A2025732025640A0D000046554E546C
:2031E000666F7461206973207570646174696E670A0D000070B52826FFF7B0FB0446FFF742
:20320000B1FB251A284C29A1002000F090FF32462146284602F004F802000CD028A10020E4
:2032200000F085FF4FF422732D4A2EA1002000F07EFF012070BD1C4C2DA10020226800F051
:2032400076FF34A10020226900F071FF3EA10020A26800F06CFF49A10020E26800F067FF0B
:2032600054A10020E26900F062FF5FA10020A26900F05DFF69A10020226A00F058FF74496C
:203280002068B1EB002F0CD072A1002000F04FFF40F29923124A13A1002000F048FF022017
:2032A00070BD002070BD000060F0000468616C5F666C6173685F72656164200A0D0000006C
:2032C00068616C5F666C6173685F7265616420737461747573203D2025640D0A0000000070
:2032E0006ED10004653A2025732025640A0D0000666F74615F686561645F6275662E6D5F43
:203300006D616769635F766572203D202578200A0D000000666F74615F686561645F6275DE
:20332000662E6D5F62696E5F696E666F5B305D2E6D5F62696E5F6C656E677468203D20254B
:2033400078200A0D00000000666F74615F686561645F6275662E6D5F62696E5F696E666F49
:203360005B305D2E6D5F62696E5F6F6666736574203D202578200A0D00000000666F746151
:203380005F686561645F6275662E6D5F62696E5F696E666F5B305D2E6D5F62696E5F737401
:2033A0006172745F61646472203D202578200A0D00000000666F74615F686561645F6275AA
:2033C000662E6D5F62696E5F696E666F5B305D2E6D5F7369675F6C656E677468203D2025A1
:2033E00078200A0D00000000666F74615F686561645F6275662E6D5F62696E5F696E666FA9
:203400005B305D2E6D5F7369675F6F6666736574203D202578200A0D00000000666F7461A6
:203420005F686561645F6275662E6D5F62696E5F696E666F5B305D2E6D5F69735F636F6D65
:2034400070726573736564203D202578200A0D00004D4D4D424C5F464F54415F48454144B6
:2034600045525F4745545F4D41474943206661696C0A0D00114810B503214160002101607E
:20348000FFF74EFE18B9FFF779FE002815D00C4801F0E4FF0BA1002000F049FE00F084F808
:2034A000020004D00DA1002000F041FEFEE7BDE810400EA1002000F03ABE10BD000088A0B3
:2034C000FECAADDE737461727420666F746120757064617465200A0D00000000464F54419D
:2034E000206572726F7225640A0D0000464F54412075706461746520737563636573730AF2
:203500000D0000002DE9F0410E460746FFF726FA0446FFF71FFA0444A4F50074FFF722FAE0
:20352000251A32463946284601F07AFE04000ED040F21533094A0AA1002000F0F8FD2246B7
:203540000AA1002000F0F3FD0720BDE8F0812A460EA1002000F0EBFD0020F6E791D1000409
:20356000653A2025732025640A0D000068616C5F666C6173685F72656164202C20737461E3
:20358000747573203D202564200D0A00726561642075706461746520696E666F2066726F20
:2035A0006D202578200D0A0070B5274900200860FFF7E4FD60B125A1002000F0B8FD29A150
:2035C000002000F0B4FDFFF715FE040005D00CE000F0B0F80400F2D007E00021022000F0E4
:2035E00073F8FFF76FFC040002D000F05FF910E00021032000F068F8244D286A012813D04E
:20360000FFF750FB040013D021A100202A6A00F08EFD204600F04AF926A1002000F087FD9D
:2036200001F03CFF204670BD0020FFF70FFAE9E73221042000F048F8204600F037F964212A
:20364000042000F041F8EBE744E500047570646174696E67206D61726B6572206578697347
:2036600074000000626C5F666F74615F6C6F61645F616E645F636865636B5F666F74615FA9
:203680006865616465720A0D0000000060F0000477726F6E672069735F636F6D70726573D5
:2036A0007365642076616C7565203D2025780A0D00000000666F74612075706461746520F3
:2036C0006661696C200D0A0070B586B00D4606461422144901A8FCF739FE0020024601A9A5
:2036E00004E000BF51F82230521C1844B242F9D351F8221064226943B1FBF2F10C180A4850
:2037000001F0ACFE09484168491C8C4200D344603346224606490020009500F008FD06B0DA
:2037200070BD000030D10004FECAADDE44E50004BCD5000400B591B040216846FCF71FFE2D
:20374000012000900020084A01906946CDF80C0001EB8003401C1A610828F9D340216846E4
:2037600000F004F811B000BD46554E542DE9F0410F468046FFF7F2F80446FFF7EBF80444F5
:20378000A4F50074FFF7EEF8241A204601F0C5FC06004FF4805009D0012E02D0022E05D1F1
:2037A00002E04FF4004001E04FF48030401E24EA000523462A4618A1002000F0B8FC314692
:2037C000284601F0FFFC02000CD01CA1002000F0AEFCF623214A22A1002000F0A8FC082017
:2037E000BDE8F0813A464146204601F02BFD02000BD01EA1002000F09AFCFC23174A18A1B2
:20380000002000F094FC0420EAE722461FA1002000F08DFC0020E3E7657261736520616473
:2038200064723A2025782C206D61726B657220616464723A2025780D0A00000068616C5F90
:20384000666C6173685F657261736520737461747573203D2025640D0A00000013D1000422
:20386000653A2025732025640A0D000068616C5F666C6173685F7772697465207374617429
:203880007573203D2025640D0A00000077726974652075706461746520696E666F206164A4
:2038A0006472202578200D0A0000000010B590B0044640216846FCF762FD00210A4668466F
:2038C00000EB8103491C1A610829F9D340210194FFF74CFF10B010BD01A1002000F027BC43
:2038E0005F626C5F6672656520200D0A000000001CB5464800F0AAFD4548016841F47001B1
:20390000016044A1002000F012FC002000F044FD48A1002000F00BFCFFF730F8FFF756F890
:2039200048A1002000F003FC4B494020C1F824034AA1002000F0FBFB00F012FB4BA10020C1
:2039400000F0F5FB01F0FAF94DA1002000F0EFFB00F054FE012200211320FEF75FFF024667
:203960004DA1002000F0E3FB012200210420FEF755FF02464CA1002000F0D9FB0022114628
:203980000820FEF74BFF02464BA1002000F0CFFB4DA1002000F0CBFB01F056F94FA100209E
:2039A00000F0C5FB04F091F851A1002000F0BFFB01F030FC51A1002000F0B9FB01F02AFC34
:2039C00000208DF800001E200190684601F052FD020003D54EA1032000F0A9FB524801F07A
:2039E00025FD52A1002000F0A2FB56490620086555A1002000F09BFBFEF7E2FE5AA1002047
:203A000000F095FBFEF7B2FF1CBD000080BA8C0188ED00E0736574204350313020616E64D8
:203A200020435031312046756C6C204163636573730D0A00626C5F756172745F696E697439
:203A40000A0D000069326320636C6F636B20656E61626C65200A0D00000001A2626C5F7027
:203A60006D69635F696E69740A0D0000637573746F6D5F736574454D49200A0D000000008B
:203A8000636C6B5F7365745F706C6C5F64636D5F696E6974200A0D00636D342066726571EB
:203AA0003D25640A0D00000075706C6C20667265713D25640A0D00006275732066726571A9
:203AC0003D25640A0D000000637573746F6D5F736574416476454D49200A0D0063757374D7
:203AE0006F6D5F736574534649457874200A0D004E4F525F696E6974200A0D0068616C5F28
:203B0000666C6173685F696E6974200A0D00000068616C5F7764745F696E69742028256486
:203B200029200A0D00000000BEBAFECA67706461635F7372616D5F706F7765725F646F779F
:203B40006E0A0D0000001BA2636F6E66696720626F6E64696E6720696F2072656769737406
:203B600065720A0D0000000044324420494F2070756C6C20646F776E0A0D000030B5164CD2
:203B80000023237561B104F1140300BFB1FBF2F402FB1414B1FBF2F10A2C08D230340CE0E7
:203BA0000268302111700168491C016030BD102A05D10AA52C4414F80A4C03F8014D0029AA
:203BC000E4D105E0026811700168491C5B1C016019780029F6D130BD34E8000461626364A2
:203BE0006566000008B5002002460090FF230121282000F066F9022801D0012008BD00F099
:203C000002F8002008BD1CB514210020CDE900013F230E220121282000F05AFA1CBD1CB5FE
:203C20000121CDE9001003231422282000F050FA1CBD1CB50121CDE9001003231622282086
:203C400000F046FA1CBD1CB50024FF23224601216020009400F035F9272801D001201CBD6E
:203C600001230094572219466020019400F030FA00940223632201216020019400F028FAFE
:203C80004020CDE90040702387220121602000F01FFA2120CDE9004031238A22012160200E
:203CA00000F016FA00940223A12201216020019400F00EFA00201CBD70471CB50024FF2392
:203CC000012202216B20009400F0FBF885284FF001000AD1CDE9004001234B2202216B209F
:203CE00000F0F6F900F002F800201CBDF0B593B01C22344909A8FCF729FB32491C221C3191
:203D000002A8FCF723FBFC200024CDE90040FF233E2202216B2000F0DBF9DA20CDE90040CE
:203D2000FF233F2202216B2000F0D2F90120CDE900400346402202216B2000F0C9F90F98CE
:203D40000425C7B2CDE900570F234FF49F7202216B2000F0BDF908980F23C6B2CDE9005684
:203D600040F2031202216B2000F0B2F9CDE900570F2340F23F1202216B2000F0A9F9CDE9FB
:203D800000560F2340F2051202216B2000F0A0F900940123402202216B20019400F098F93D
:203DA0000094FF233E2202216B20019400F090F90094FF233F2202216B20019400F088F966
:203DC00013B0F0BD30D200047CB506004FF0010500D00025FC200024CDE90040FF233E2244
:203DE00002216B2000F074F9DA20CDE90040FF233F2202216B2000F06BF9CDE90046012323
:203E0000EC2202216B2000F063F9062607E00123EC2202216B20009600F053F80546002D5E
:203E2000F5D00094FF233E2202216B20019400F04FF90094FF233F2202216B20019400F0E2
:203E400047F97CBD7CB506004FF0010500D00025FC200024CDE90040FF233E2202216B2012
:203E600000F036F9DA20CDE90040FF233F2202216B2000F02DF9CDE900460123ED2202219A
:203E80006B2000F025F9062607E00123ED2202216B20009600F015F80546002DF5D0009431
:203EA000FF233E2202216B20019400F011F90094FF233F2202216B20019400F009F97CBDBE
:203EC00070477CB51C46069DD3B2012902D0022903D009E08DF8003006E08DF801304023D9
:203EE00043EA12228DF8002001AB6A4600F005F89DF80400E84020407CBD10B586B00024FA
:203F00008DF800000120CDE90330CDE901216946002002F0BBFE04F1010410F0FF0FE4B222
:203F200001D00A2CF3D9641E06B0E0B210BD2DE9F04117460D46064600246B1C3A46314632
:203F4000002002F071FE04F1010410F0FF0FE4B201D00A2CF1D9641EE0B2BDE8F081000047
:203F60003EB500256420029002A90095284602F04FFEFFF7A2FE1F4C68B1FFF733FE98B19C
:203F8000FFF761FE00282ED01BA1002000F0CFF8234820603EBD23A1002000F0C8F8294828
:203FA0002060294860603EBD28A1002000F0BFF82E4820602E4860602E48C068009068B152
:203FC0002DA1002000F0B3F8C320CDE90050FF231F220121282000F07BF83EBD2CA1002057
:203FE00000F0A5F83EBD31A1002000F0A0F83748CFE7000058E500040A0D4552524F522088
:204000003A206E6F742046696E6420616E7920504D49432043484950204944200A0D00007B
:20402000C19E00040A0D46696E64204D543633383520504D49432043484950204944200A8A
:204040000D000000459E0004C99D00040A0D46696E64204D4158313437343520504D494316
:204060002043484950204944200A0D00339C00041F9C0004000005A273797374656D2072A8
:204080006573657420627920574454200A0D000073797374656D207265736574206E6F74D5
:2040A00020627920574454200A0D00000A0D46696E64204D543633323720504D49432043E8
:2040C000484950204944200A0D000000B99C00042DE9FC418046DDE908671D460C46D0B23D
:2040E000012902D0022C1AD001E08DF8000001AB6A464046FFF701FF9DF80400B540A843F5
:204100008DF80400B74038430DF804006A4621464046FFF70CFF40B10020BDE8FC818DF845
:204120000100402040EA1220DFE70120F5E70FB410B504AA039900F003F810BC5DF814FB12
:204140002DE9FC5F92468F4E8F4A0027009637701278904273D30D464FF078094FF02D0BD0
:204160004FF03008FAE0252804D0009901F8010B0091F2E015F8010F702874D008DC632864
:2041800072D064280BD066286FD06F28F1D111E073286BD0752830D07828EAD11CE05AF843
:2041A000041B002904DA0098494200F801BB00900A220DE05AF8041B002904DA00984942BE
:2041C00000F801BB00900098082200F8018B00906846FFF7D3FCC0E05AF8041B002904DA3A
:2041E0000098494200F801BB00900098102200F8018B00F8019B0090EAE7009C5AF8040B18
:20420000102204F8018B010C04F8019B80B2CDE900406846FFF7B2FC0098011B042913DAF7
:204220000320C1F1030105E0421A224412F8012C2254401E8142F7DB0020424602E09FE055
:204240002254401C8142FBDA241D1022009468460199FFF793FC0098011B042916DA03202C
:20426000C1F1030109E014E016E01CE06AE0421A224412F8012C2254401E8142F7DB0020ED
:20428000424601E02254401C8142FBDA241D009463E05AF8041BA8E700981AF8041B00F872
:2042A000011B009059E00AF1070020F00700F0E802418246002907DA009800F801BB009037
:2042C0000020644260EB01012046FCF763F89FED2F1B53EC112BFCF771F805D80A222146FA
:2042E0006846FFF74BFC03E0009800F8018B009000982E214FF0000200F8011B0090211B3C
:2043000042F21070A1FB001022484FF00A04077500F1140091FBF4F304FB131391FBF4F1FC
:2043200003F1300302F1010200F8013D042AF1DB04E00099401C01F8012B00910278002AFD
:20434000F7D10AE05AF8040B04E00099401C01F8012B00910278002AF7D16D1C28780028FE
:204360007FF401AF009807703046009605E000BF00F0E8F80098401C009000780028F7D19F
:20438000BDE8FC9F34E6000438E50004000000000000F03F49E800040149087070470000C1
:2043A00038E5000438B50EA10020FFF7C0FE114C4025C4F8245310A1002004F54574FFF7FE
:2043C000B6FE642000906946002002F021FC00F0CDF80CA10020FFF7AAFE256038BD00009D
:2043E00069326320636C6F636B20656E61626C65200A0D00000001A269326320696E697460
:20440000200A0D0069326320636C6F636B2064697361626C65200A0D0000000010B5FEF756
:2044200095FA0446024604A10020FFF780FE2046BDE81040FCF76AB84A756D7020746F20F3
:20444000616464722025780A0D000000F0B595B00446282237496846FBF778FF3549282210
:2044600028310AA8FBF772FF3349FF2008603320091F08603148D0F8241341F40041C0F842
:2044800024134FF0E172B4FBF2F104EB84004000B0FBF2F20A23B2FBF3F503FB152202B9CD
:2044A00001B9491C4FF4E1324A43B4FBF2F24FF4807505E04FF4E132491C4A43B4FBF2F26F
:2044C000AA42F7D84FF4E1344C43B0FBF4F0B0FBF3F403FB1406551E921E194853080327F8
:2044E00007701748183802788DF850209DF8502042F080040470124C243C2170241D090A55
:20450000217002700E49091D0D70091D0B700C4A1DF82610303211700AA9121D11F8261058
:2045200011700770001F972101700020207015B0F0BD0000E0D10004080C02A2000001A209
:2045400024000DA008B508490A788DF800209DF80020ADF80020BDF800209206F4D502495A
:204560001439087008BD000014000DA0F8B5164CD4F80C01009015A1002004F58674FFF7B9
:20458000D6FD1B4D288840F001002880194820600426C4F818624FF44057C4F81C7200F002
:2045A00075FE00F0B7FE288820F00100288000982060C4F80862C4F808720F49002009681D
:2045C00001B0BDE8F0400847000001A2626C5F7573625F6C6F775F706F7765725F73657404
:2045E00074696E672073746172740A0D00000000A00701A2FF0F001058E500042DE9F04FA6
:2046000091B0F94800240390F8480B900C94F848079040F65C7000940D900F940020059084
:20462000F548DFF8D0B309946FF07F412646C0F88011F2480F210180F04A42F60100121FE3
:204640001080EE4A20321180111F0880EC4D01202884032005F58375FBF70BFD4FF48040DF
:20466000E88741F6010068871420FBF702FD002211460B20FEF7D2F80246E2A10020FFF73B
:2046800056FDE74DE64F083D4CF6FF7848F6FF7905F1040A0FA90120FBF713FD00203880F3
:2046A0000B21AAF80010A5F80080A5F80090BAF80010BAF800100091084602E0BAF80000DB
:2046C00000900004FAD4D648001D0088D54900904843040B06B90C940798844202D30B9831
:2046E000844201D9192E6FD309A90120FBF7E9FC09990598234608440F990C9AA0EB010B0E
:20470000C9A10020FFF713FD192E03D3D0A10020FFF70DFD012203210420FEF77FF802463C
:20472000D3A10020FFF703FD002211460B20FEF775F80246731CD7A10020CDF800B0FFF70F
:20474000F6FC012200210C20FEF768F80246DEA10020FFF7ECFC0026E2480390E2480B9035
:204760000C96E248079042F628404FF40A240F96B346A8460C2709960D900FA90120FBF7FF
:20478000A0FCA74801210180112101805046AAF800704CF6FF72A8F80020A8F80090BAF83B
:2047A0000010018800910904FBD49D48001D008800900620FBF75DFCCD4900984843050B1F
:2047C000002E72D072E0FFE70B990398884208D90798844205D200994FEA4B00C1EB5000F2
:2047E00012E003990798814208D20B98844205D900994FEA4B0001EB500005E00D990BFBBE
:2048000001F00099B0FBF1F08346484200EB80011BEB410011D00099009BB0FBF1F1039146
:20482000009901EB410149006422B1FBF2F1039A02FB1300B0FBF1F015E0009800EB800121
:20484000CBEB41000099B0FBF1F103910099039B01EB41014A006421B2FBF1F2009903FB4C
:204860001100B0FBF2F065490090091F088820F47C52039842EA00200880088820F0F002C1
:20488000009842EA001008800620FBF7F2FB09A90120FBF716FC09990598039401440F981E
:2048A000081A761C0590F5E6FFE70C950798854202D30B98854201D9192E7CD309A9012065
:2048C000FBF7FFFB09992B460BEB01000F990C9A441A88A10020FFF72AFC192E03D38FA184
:2048E0000020FFF724FC012200210C20FDF796FF0246731C91A100200094FFF718FC3E4C38
:204900006FF07F40C4F880013D4D002625F8486FAE8097480680012004F58074FBF7A9FB81
:20492000A5F8BC6041F20420288191480126C038068041F60100A5F8B8003220FBF799FBDB
:204940008C48D0F850118C4A1143C0F85011D0F854118A4A1143C0F85411606920F47C410B
:2049600040F2036001436161A16921F47C410143A161834DA5F85461E01720608148606058
:20498000012005F5A875FBF774FB7F48E0607F48606040F67F6028800220FBF76AFB200595
:2049A000E060C4F800714FF44010C4F8100211B0BDE8F08FFFE70B990398884207D90798D6
:2049C000854204D200996000C1EB5004EAE007990398884207D20B98854204D90099600059
:2049E00001EB5004DEE0D3E0C045040000CF0300CCC6030099010300000001A2040904A2A3
:204A0000000004A24C464F53432066726571206265666F7265204B203D2025640A0D000090
:204A2000080404A2A0F703005B4C464F53435D204265666F7265204B203D2025642C20418A
:204A400066746572204B203D2025640A0D0000005B4C464F53435D2063616C69627261748C
:204A6000696F6E206661696C65640A0D0000000055504C4C2066726571206D65617375729C
:204A80006564206279204C464F5343203D2025640A0D00004C464F534320667265712061D8
:204AA00066746572204B3D2025642C204B2025642074696D65732C20746F74616C20256459
:204AC0002075730A0D00000048464F53432066726571206265666F7265204B203D20256472
:204AE0000A0D000020300500A0790400E0480400409601005B48464F53435D204265666F63
:204B00007265204B203D2025642C204166746572204B203D2025640A0D0000005B48464F4F
:204B200053435D2063616C6962726174696F6E206661696C65640A0D0000000048464F530E
:204B4000432066726571206166746572204B3D2025642C204B2025642074696D65732C20F3
:204B6000746F74616C2025642075730A0D000000000704A200000AA20202C0010306C00161
:204B800000001DA200008083FF0F00102B8084C36420B4FBF0F00D9948430099B0FBF1F4D6
:204BA00064204443484200EB800014EB400010D0B0FBF1F10391009901EB41014A0064211F
:204BC000B2FBF1F3009A039901FB1200B0FBF3F013E001EB8100C4EB4000B0FBF1F1039102
:204BE0000099009B01EB41014A006421B2FBF1F1039A02FB1300B0FBF1F000900F4801884C
:204C0000039A21F47C5141EA022101800188009A21F0F00141EA021101800620FBF729FA27
:204C200009A90120FBF74DFA0999761C0BEB01000F990395A0EB010B9FE50000200904A213
:204C40004FF480007047000010B52948294C816BC4F83011C16BC4F83811C16821670169FA
:204C6000C4F888104169C4F850118169C4F85811C169C4F8D010016AC4F8D810416AC4F8CE
:204C8000E010816AC4F8F810C16AC4F80011016BC4F80811406BC4F81001BC34FDF7C2FC22
:204CA000154844F82C0CBC3CD4F890000006FBD51248C4F8900000BFD4F890000006FBD463
:204CC0000F48C4F89000FDF79BFC00F0CFF801F097FF30B10BA10020FFF729FA4FF0FF3034
:204CE00010BD0FA10020FFF722FA002010BD000060E50004000005A000000F3000000F706C
:204D000000000F10505352414D204D656D6F7279205465737420506173732121000000009F
:204D2000505352414D204D656D6F72792054657374204661696C65642121000000B5FBF749
:204D4000A3FDFDF7B1FC0020FDF798FC054A10600120FDF793FC50600220FDF78FFC9060C6
:204D6000002000BD60E50004FEB50C4D002400BF04EB840105EB810043685A1C0CD0083004
:204D800045C88DE8450055F8212005490020FFF7CEF9641C142CEBDBFEBD00008890010435
:204DA00008D6000470B50025FFF7DEFF02F03CF80E4E002456F824303BB122460CA100208B
:204DC000FFF7B5F956F824000544641C142CF1DB2A460FA10020FFF7AAF92DB113A1BDE8D8
:204DE00070400020FFF7A3B918A1F8E7189201047061747465726E2025642C206661696CBB
:204E00006564206E756D6265722025640A0D0000746F74616C206661696C6564206E756D47
:204E20006265723A2025640A0D000000534C54204D656D2074657374207061747465726E0F
:204E4000206661696C6564210A0D0000534C54204D656D2074657374207061747465726E65
:204E60002070617373210A0D0000000010B543A10020FFF75CF9464C226E46A10020BC34F6
:204E8000FFF755F954F84C2C46A10020FFF74FF954F8342C47A10020FFF749F954F82C2C35
:204EA00048A10020FFF743F962694AA10020FFF73EF9E2694BA10020FFF739F9626A4DA17B
:204EC0000020FFF734F9E26B4EA10020FFF72FF9626C50A10020FFF72AF9E26C51A10020BD
:204EE000FFF725F9626D53A10020FFF720F9626F54A10020FFF71BF9E26F56A10020FFF75E
:204F000016F9D4F8942057A10020FFF710F9D4F89C2059A10020FFF70AF9D4F8A4205BA1C4
:204F20000020FFF704F90020FDF7A8FB02465CA10020FFF7FCF80120FDF7A0FB02465BA164
:204F40000020FFF7F4F80220FDF798FB02465AA10020FFF7ECF80420FDF790FB024659A184
:204F60000020FFF7E4F80620FDF788FB0246BDE8104057A10020FFF7DAB8000044756D702F
:204F800020454D492053657474696E670A0D0000000005A0454D495F434F4E4D203D202553
:204FA000780A0D00454D495F47454E41203D2025780A0D00454D495F52444354203D2025D3
:204FC000780A0D00454D495F444C4C56203D2025780A0D00454D495F49444C43203D2025AD
:204FE000780A0D00454D495F49444C44203D2025780A0D00454D495F49444C45203D2025A0
:20500000780A0D00454D495F4F444C43203D2025780A0D00454D495F4F444C44203D202575
:20502000780A0D00454D495F4F444C45203D2025780A0D00454D495F4F444C46203D202551
:20504000780A0D00454D495F494F41203D2025780A0D0000454D495F494F42203D2025784F
:205060000A0D0000454D495F445352414D203D2025780A0D00000000454D495F4D535241CA
:205080004D203D2025750A0D00000000454D495F4D5245475F5257203D2025780A0D0000F7
:2050A0004D5230203D2025780A0D00004D5231203D2025780A0D00004D5232203D20257804
:2050C0000A0D00004D5234203D2025780A0D00004D5236203D2025780A0D000070B5044640
:2050E00090F880000E4621F07F4510B92046FDF745F8E068A84201D8022070BDD4E90110F7
:2051000000228B6829469847D4E90110CA68314690470028F1D0062070BD10B5FDF742F8AF
:20512000411C0BD0FDF746F8B0F5805F07D0B0F5004F06D0B0F5803F05D0FEE7FEE70020BD
:2051400010BD012010BD022010BD02280AD003280BD005280CD06FF0060106280BD0801C87
:2051600009D0FEE76FF0020070476FF0030070476FF00500704708467047000070B50F4AA2
:205180001168090717D500210D4D0123D46A03FA01F634420BD005EB8104266826F4807665
:2051A000864204D8246C844201D9012070BD491CC9B21029EAD3002070BD0000000088A082
:2051C000000089A070B56FF0020521B1012906D0022908D01AE0010518D1FA2407E0410413
:2051E00014D1FB2403E00104090C0FD1FC24FCF7D9FF411C0AD040EA04610548FFF76EFF6D
:20520000002804D0BDE87040FFF79FBF284670BD4093010410B5FCF7FBFF002010BD0000D7
:2052200010B5044613460A460548214601F072FD002803D0BDE81040FFF787BF10BD0000A9
:205240004093010470B51646054613460A460E48294601F0B7FE18B1BDE87040FFF775BF4E
:205260002846FFF78BFF60B1A81925F01F04203020F01F0503E02046FAF7DCFF2034A54262
:20528000F9D2002070BD00004093010420480068D0F8001841F00041C0F80018D0F86818E4
:2052A00021F08061C0F86818D0F86C1821F48031C0F86C18D0F8201821F40071C0F8201800
:2052C000D0F8201821F48071C0F82018D0F81C1821F08001C0F81C18D0F8201821F4803198
:2052E000C0F82018D0F8201821F40031C0F82018D0F8181841F00061C0F81818D0F86818CE
:2053000021F48021C0F868180120FAF7C4BE000054E5000410B5444C2068D0F8681821F098
:205320008061C0F86818D0F86C1821F48031C0F86C18D0F8201821F40071C0F82018D0F8C8
:20534000201821F48071C0F82018D0F8681841F00801C0F86818D0F8681841F48021C0F88F
:2053600068180220FAF797FE2068D0F8681841F04001C0F86818D0F8681841F08001C0F8D9
:205380006818D0F8681821F0300141F01001C0F86818D0F8681841F00401C0F86818D0F80B
:2053A000681821F47051C0F86818D0F8681841F48011C0F86818D0F8681841F40011C0F8D3
:2053C0006818D0F8681841F40021C0F86818D0F8681841F40031C0F86818D0F8681841F414
:2053E0000001C0F86818D0F81C1841F08001C0F81C18D0F8181821F00061C0F81818012067
:20540000FAF749FE2068D0F8681821F00801C0F868180120FAF73FFE2068D0F8001821F06A
:205420000041C0F8001810BD54E50004094910B5884201D0881710BD0121002001F0AEFD55
:205440000121052001F0AAFD034941F671108860002010BDBEBAFECA000005A2044910B59B
:2054600041F6711088607B20FAF703FE002010BD000005A210B502006FF0010104D01078E7
:2054800010B950681E2801D9084610BD01F074FD1178032001F082FD002010BD024941F267
:2054A0000920C86100207047000005A22DE9F0475F4C54F82050AA8054F8205001222A87AE
:2054C00054F820601F25B5810026202703254FF0240C4FF076094FF0260A0F2966D2DFE81E
:2054E00001F0081725394D6A081725394D6A86869400002954F8201007D0A1F8405000BF4F
:2055000054F820100F8219881AE0A1F84060F7E7012954F8201006D0A1F8405054F82010AB
:20552000A1F810C0EFE7A1F84060F7E7022954F820100CD0A1F8405054F820100F8299883B
:2055400054F82030998254F820100A8347E0A1F84060F1E7032954F820100CD0A1F84050A6
:2055600054F82010A1F810C054F820108A82998854F8203032E0A1F84060F1E7722204291D
:2055800054F8201014D0A1F8405000BF54F820100A8254F820201988918254F820200221CC
:2055A0001183998854F82000A0F86C10BDE8F087A1F84060EAE7052954F8201014D0A1F869
:2055C000405000BF54F82050A5F8109054F820501988A982998854F82030491C198354F8F1
:2055E0002000A0F86C20E1E7A1F84060EAE754F82010A1F8405054F82050A5F810A054F89B
:2056000020501989A982198AB2E754F82010A1F8405054F82020A2F8109054F82020198978
:20562000918254F82020198A11839989BAE700006CD500040D4A01466FF0030052F8212001
:2056400091898B0701D5401C0CE04B0702D56FF0010007E0CB0602D54FF0FF3002E00129EE
:2056600000D100201F219181704700006CD5000430B50023044C04E054F820502D88CD541D
:205680005B1C9342F8D330BD6CD5000470B51F4B002253F82040A285062914D2DFE801F071
:2056A0000307090B0E1153F8202001219185642109E0C82107E04FF4967104E04FF4C87102
:2056C00001E04FF47A71124C012254F8205000BF01FB02F46400661E2E44B6FBF4F4402C6E
:2056E00002D9521C082AF3D953F82030198C4FF6C0000140521E4FF4E06000EA0220084393
:20570000641E04F03F010843188470BD6CD5000414E6000470B50023044C04E054F8206034
:20572000CD5C35805B1C9342F8D370BD6CD5000410B50F4800240FA104602046FEF7F7FC60
:205740001149002041F82040401C1428FADB00210E4B481E01EB8102491C43F8220003EBCA
:205760008202142950609060D0601061F2DB10BDD4E50004496E6974206465627567206E87
:205780006F64650A0D00000018920104889001042DE9F0410746A2B0154688461E46000576
:2057A00025D14FF022408068A0F51451233907D1B5F1006F04DD0D221DA9A5F1006002E079
:2057C0000D221DA92846FFF72BFD18B1082022B0BDE8F081002420461DA90A18C30052796F
:2057E0009A40401C14440828F7DB444501D90220EDE70020069005903346052201A8FBF73A
:2058000071F842F210710220401C8842FCDB234605F10D02394601A80096FAF781FF044664
:20582000314601A8FCF72AFA2046D0E710B5FEF75FF8FDF71FFEFEF7B5FDFEF7EFFD00204A
:2058400010BD00007CB50D46044601686268480F40EAC200020E8DF80020020C8DF80120CE
:20586000020A8DF80220C9008DF80300080E8DF80400080C8DF80500080A8DF806008DF8C5
:205880000710207800F03F00382802D2C0F1380201E0C0F178022049204601F079F90822A3
:2058A0006946204601F074F9A068000E2870A068000C68702089000AA870207AE870E068D6
:2058C000000E2871E068000C6871A089000AA871207BE8712069000E28722069000C687214
:2058E000208A000AA872207CE8726069000E28736069000C6873A08A000AA873207DE8737B
:20590000A069000E2874A069000C6874208B000AA874207EE8747CBD7CD500045C21FAF71C
:205920002EBD00002DE9F04F0A689BB012BA22F0FF0CCA784CEA020CCDF864C04A6812BA94
:2059400022F0FF06CA79164316968A6812BA22F0FF06CA7A16431596CA6812BA22F0FF0CB0
:20596000CA7B4CEA020CCDF850C00A6912BA22F0FF06CA7C16430E964A6912BA22F0FF0C94
:20598000CA7D4CEA020CCDF834C08A6912BA22F0FF06CA7E16430C96CA6912BA22F0FF0595
:2059A000CA7F15430A950A6A12BA22F0FF0691F8232046EA020E4A6A12BA22F0FF0691F824
:2059C0002720164308968A6A12BA22F0FF0691F82B2016430796CA6A12BA22F0FF0791F847
:2059E0002F2017430A6B12BA22F0FF0591F8332091F8373045EA020A4A6B91F83B4012BA1B
:205A000022F0FF021A438B6BD0F808C01BBA23F0FF032343CC6B91F83F10CDF84CC0C66832
:205A2000129603960569E346119524BAD0F814C024F0FF040C43CDF860C081690B918846CF
:205A400085EA0C013140E14681EA0C01DDF864C001EBFB660CEB08010E44FE4906EB0108E1
:205A6000039ECDF800804FEAB60603966E4006EA0B066E4006EBF868169E4FEABB0B4E44BF
:205A8000464406EB0108CDF80480039EDDF800808BEA060C0CEA080C8CEA060CDDF80480D1
:205AA000159E0CEBF86C3544DDF8008065444FEAB809DDF8048089EA0B0605EB010C06EA9D
:205AC000080686EA0B0606EBFC65CDF808C0DDF850C0039E6644354405EB010CCDF80CC021
:205AE0004FEAB805DDF808C085EA090808EA0C08DDF80CC088EA09080E9E08EBFC685E44C4
:205B0000464406EB0108DDF808C0CDF810804FEABC060296DDF80CC06E4006EA0C066E407D
:205B2000DDF834C006EBF8680CEB090646440E440096DDF80CC0029E4FEABC0BDDF810802D
:205B40008BEA060C0CEA080C8CEA060C009E4FEAB8090CEBF66C0C9E89EA0B083544009EF4
:205B6000654405EB010C08EA0608029E0A9DCDF804C088EA0B08354408EBFC6C654405EBBD
:205B8000010C009ECDF808C04FEAB605DDF804C085EA090606EA0C06DDF808C086EA0906A4
:205BA00006EBFC680EEB0B064644DDF804C006EB010B4FEABC060196DDF808C06E4006EA99
:205BC0000C066E4006EBFB6C089E4E44664406EB0108DDF808C0019E4FEABC0989EA060C12
:205BE0000CEA0B0C8CEA060C079E4FEABB0B35440CEBF86C8BEA0906654406EA080605EB7D
:205C0000010C86EA090606EBFC65019ECDF810803E4435446E184FEAB805049585EA0B0523
:205C200005EA0C05019685EA0B0505EBF6660AEB09053544CDF800C06E18DDF800C002964E
:205C4000049D4FEABC0C019E8CEA050808EA0608029E88EA050808EBF66502EB0B0635449C
:205C6000019E05EB01094FEAB60B029E8BEA0C05354085EA0C0505EBF966049D1D443544AC
:205C8000029E05EB01084FEAB606029686EA0B0606EA090686EA0B0606EBF86504EB0C068E
:205CA00035446E180096DDF864C0159ECDF810804FEAB90982EA0E0586EA0C067540029EFD
:205CC000DDF8108089EA060C0CEA080C8CEA060C009E4FEAF5750CEBF66619952E4406EBA3
:205CE0000B056E180196089E4FEAB80583EA0608DDF850C0169E8CEA060C88EA0C0B009E18
:205D000085EA090808EA0608019E88EA090808EBF66C4FEAFB76B4441696029EDDF85480F5
:205D2000664406EB010B079EDDF838C066408CEA080C009986EA0C061A964FEAB101DDF88F
:205D400004C081EA050606EA0C066E4006EBFB681A9E4FEAF67CCDF854C0C4443D4ECC4426
:205D6000B444019ECDF80CC04FEAB6060196199EDDF834C0DDF850807E408CEA080C86EA92
:205D80000C09019EDDF80CC04E4006EA0B064E4006EBFC684FEAF97C08EB0C062E442D4D9D
:205DA000CDF850C035440495DDF838C00C9E169D86EA0C0685EA0A0585EA06084FEABB0958
:205DC000DDF80CC0019E8CEA090C049D8CEA060C0CEBF5664FEAF87B06EB0B050D441E4918
:205DE000DDF80CC06E184FEABC080096CDF80C80DDF854C00D9E0A9D8CEA020C75408CEAAE
:205E0000050C049D009E85EA080585EA090505EBF6654FEAFC7635440D96019EDDF850C0A3
:205E200035440D440195049D0C9E4FEAB5088EEA0605009ECDF810808CEA030C86EA080648
:205E40008CEA050CDDF80C80019D86EA080606EBF56503E09979825AA1EBD96E4FEAFC76A4
:205E600035444D4405EB0109CDF808900C96009E089D4FEAB60CCDF800C00A9E8BEA040833
:205E8000754088EA0506019DDDF8108085EA0C0585EA08054FEAF67605EBF965DDF80C807D
:205EA0003544454405EB010C019D0A964FEAB508CDF80CC0DDF800C00D9E199D89EA0809A4
:205EC00089EA0C096E40DDF80CC0079D09EBFC6C85EA0E056E40CDF804804FEAF675DDF8F9
:205EE00008900CEB0506DDF810804FEAB9094644CDF8089006EB0108DDF858C00C9ECDF86B
:205F0000108086EA0C06DDF820C0DDF8048087EA0C0C86EA0C06DDF80CC04FEAF67E8CEA92
:205F2000090C8CEA080CDDF810800CEBF86C0CEB0E06DDF800C0DDF81C80664406EB010C49
:205F4000CDF800C0DDF80CC00A9E4FEABC09DDF854C0CDF80C9086EA0C068AEA080CDDF84C
:205F6000108086EA0C0688EA0908DDF80890DDF800C088EA090808EBFC6C4FEAF6780CEB0E
:205F80000806CDF81C80DDF80480DDF850C0464406EB0108CDF80480DDF8108085EA0C06A1
:205FA0004FEAB809DDF800C0CDF810908CEA090C5740DDF80C907E408CEA090CDDF80480B8
:205FC0004FEAF6770CEBF86C0CEB0706DDF80890DDF800C04E44069777184FEABC09029765
:205FE00088EA0908CDF800908EEA0B0683EA0A07DDF810907E4088EA0908029F4FEAF67AC2
:2060000008EBF76CDDF80C900CEB0A064E44DDF8048006EB010C4FEAB8060196DDF81C80CA
:206020000D9E624088EA0608DDE90167DDF80090774087EA090788EA020807EBFC664FEABF
:20604000F872029F179232444FEAB708069F0C9EDDF8109077404A44199E0A445E407740BB
:20606000019E8CEA0803734003EBF2664FEAF773109333444FEABC0603960A9EDDF80090A9
:206080008AEA0607169E4B4466407740039E0B4482EA060484EA080404EBF3664FEAF77413
:2060A0000F943444019E4FEAB20734440C440194DDF854C0199C179A8CEA040C6A4082EAEC
:2060C0000C0283EA070C039E019C8CEA060C0CEBF4664FEAF27432194244199456184FEA57
:2060E000B3090296109BDDF850C0169A019C83EA0E038CEA020C83EA0C0384EA09047C40BA
:206100004FEAF37204EBF66416922244019CDDF81C804FEAB40CCDF804C00F9C039EDDF8D9
:2061200054C084EA080432448BEA0C08DDE901C60A4484EA080486EA0C0686EA09064FEA43
:20614000F47406EBF26323443B445E180496029E15944FEAB6070297069F199CDDF850C084
:206160007C400D9E029F86EA0C06744082EA0703DDF804C0049E83EA0C0303EBF6664FEA31
:20618000F473149333444FEAB204169A0C9E82EA0A0286EA0B067240049E029F4B4466400E
:2061A0000B447E404FEAF27206EBF3660E92324462445618049A179F4FEAB208159ADDF8F6
:2061C00034C07A400A9F87EA0C077A4083EA080767404FEAF27207EBF66717440D92029A85
:2061E0003A4402EB010B4FEAB3070097149A109986EA07034A400C9983EA080369404A40F3
:2062000003EBFB614FEAF27211440C920A19FE490A9C5318DDE90E214A408EEA04014A40A3
:206220004FEAB609009F8BEA0901794001EBF3614FEAF274214401EB0802F3490A9454180F
:206240000D9A19994FEABB064A400799009F69404A4043EA060503EA060105EA090529435A
:206260004FEAF27501EBF4612944CA19E749099555184FEAB307169B0C9A44EA070C5A408D
:20628000069B0CEA060C83EA0E035A4004EA070343EA0C034FEAF27203EBF56308921A442E
:2062A0004FEAB40C0A9C159BDDF81C805C408AEA08035C4045EA0C084A4405EA0C0308EAA6
:2062C00007080A4443EA08034FEAF47403EBF2632344334407945C184FEAB509099D149B0C
:2062E000069E5D40179B4FEAB20B73405D4042EA090602EA090306EA0C06334303EBF46672
:206300004FEAF573F5180E9E089A3D447240109E44EA0B0786EA0A06724004EA0B0607EA3E
:2063200009073E430D444FEAF27206EBF56605923244624456184FEAB407079C0D9ADDF85E
:206340005CC054400F9A82EA0C02544045EA070C05EA07020CEA0B0C42EA0C0202EBF66C06
:206360004FEAF472179262444A4402EB010C0C9A4FEAB50983EA0204109D199A6A405440F9
:2063800046EA090506EA09023D402A434FEAF47E02EBFC6272445A4402EB01080A9C059A55
:2063A0000F9D6240169C4FEAB60B6C4062404CEA0B050CEA0B0405EA09052C434FEAF27241
:2063C00004EBF8640F9222443A445418099D179A199E6A40159D4FEABC07754082EA050CE9
:2063E00048EA070508EA070205EA0B052A434FEAFC7A02EBF46505EB0A024A445518089A6A
:206400004FEAB80CCDF864A08EEA0208169E149A8AEA030A724088EA020844EA0C0604EAF5
:206420000C023E4032434FEAF87602EBF56232445A44169656184FEAB40B079C0F9ADDF829
:20644000548062400E9C84EA0804624045EA0B0405EA0B0804EA0C0448EA040808EBF66437
:206460004FEAF27904EB09023A445418149F0D9A4FEAB5057A408AEA020A46EA050706EAE1
:20648000050207EA0B073A43CDF8549002EBF4674FEAFA7214923A44624457184FEAB608AF
:2064A000169E059ADDF838C056400C9ADDF8549082EA0C02564044EA080204EA080C2A4013
:2064C0004CEA020C4FEAF6760CEBF76232445A440E965618179A4FEAB40A89EA02090A9C91
:2064E0000D9ADFF828B1544089EA040947EA0A0407EA0A0204EA080422434FEAF97402EB03
:20650000F66222442A4455180D940C9C099A1499624081EA0E0181EA020C4FEAB70746EA8D
:20652000070206EA070102EA0A0211434FEAFC7C01EBF56202EB0C0101EB08024FEAB60437
:20654000DDE90E61CDF830C04E40DDF828C008995A4481EA0C014E4045EA040C05EA04018E
:206560000CEA070C41EA0C014FEAF67601EBF2610A960E44564406EB0B01DDF864C00D9EC9
:20658000DDF8248086EA0C06DDF81CC04FEAB5058CEA080C86EA0C0642EA050802EA050C1A
:2065A00008EA04084CEA080C4FEAF6760CEBF16C099666444FEAB209DDF830C0169A37446D
:2065C0008CEA020C089A41EA09065A408CEA020C07EB0B0801EA09022E40324302EBF86614
:2065E0004FEAFC721644264406EB0B04159F0A9EDDF81CC07E40059F4FEAB10187EA0C0752
:2066000086EA070A04E00000A1EBD96EDCBC1B8F48EA010C08EA01070CEA090C47EA0C0778
:2066200007EBF46C4FEAFA770CEB07062E4406EB0B0A099E149D4FEAB80C6E40179D4FEAF2
:20664000B4085D406E4044EA0C0504EA0C030D402B4303EBFA654FEAF6731D4405EB0906ED
:20666000B3440E9C059E54408EEA06056C408AEA080585EA0C0505EBFB654FEAF4742544B8
:206680000D44FF49CDF8088005EB01080D9ECDF8008087EA0605DDF85C800F9E4FEABA0A54
:2066A00086EA08067540DDF808808BEA0A0686EA0806DDF800804FEAF57506EBF8662E448E
:2066C000664406EB010CCDF804C0DDF830C04FEABB0983EA0C06DDF864C088EA09088CEA56
:2066E0000E0C86EA0C06DDF804C088EA0A0808EBFC6C4FEAF67EDDF808800CEB0E064644E7
:206700000E44CDF810900296DDF80080DDF858C04FEAB808CDF800800A9EDDF83C806640CB
:206720008CEA080C86EA0C0BDDE9008C8CEA080CDDF81090029E8CEA090C0CEBF66C4FEA3A
:20674000FB7B0CEB0B065644DDF804C006EB010A4FEABC09099ECDF8049085EA060CDDF838
:206760006480159E86EA08068CEA060C029EDDF8008086EA090686EA08064FEAFC7C06EBE8
:20678000FA66DDF810906644CDF864C04E4406EB010C029ECDF810C04FEAB609CDF8089077
:2067A000DDF850C0DDF858808EEA02068CEA080C8AEA090886EA0C06DDF80490DDF810C028
:2067C00088EA090808EBFC6C4FEAF678CDF858800CEB0806DDF80080DDF838C046444FEAAD
:2067E000BA08CDF80C800E44DDF8548000968BEA07068CEA080C86EA0C0ADDE9038CDDF839
:2068000008908CEA080C009E8CEA090C0CEBF6684FEAFA7C08EB0C06CDF854C0DDF80490E2
:20682000DDF810C04E4406EB01094FEABC0ADDF864C0DDF850800D9E8CEA030C86EA0806DB
:206840008CEA060C009EDDF80C8086EA0A0686EA0806CDF8049006EBF9664FEAFC78DDF888
:20686000089046444E440E44CDF850800296009EDDF858804FEAB60CCDF800C0DDF830C055
:206880000E9E88EA04088CEA060C88EA0C08DDE900C989EA0C09029E89EA0A094FEAF87CD6
:2068A00009EBF6666644DDF80C80DDF804904644CDF838C006EB01084FEAB90CCDF80C8084
:2068C000CDF804C0DDF854C0DDF834800A9E8CEA050C86EA08068CEA0609DDE901C686EA8E
:2068E0000C06DDF800C0DDF80C8086EA0C0606EBF8664FEAF9784644564406EB010C029E53
:20690000CDF810C04FEAB6060296CDF83480DDF85080DDF830C0099E88EA0E0886EA0C06C1
